:0200000407FCF7
:1000000070E0FC072505FC072D05FC074505FC07EE
:1000100000000000000000000000000000000000E0
:100020000000000000000000000000005D05FC076B
:1000300000000000000000005F05FC07232CFC0707
:100040002922FC07AD7EFC071D27F007252CFC07A5
:100050008527FC076305FC071D22FC076305FC07D9
:100060006305FC076305FC07AD26FC07B726FC0704
:10007000C126FC07CB26FC07D526FC076305FC0739
:10008000B92CFC076305FC076305FC076305FC0747
:100090006305FC076305FC076305FC076305FC07B4
:0200000407FCF7
:100510000348854601F090FD004800474D6EFC07FA
:1005200070E0FC070F4880470F48004704207146E1
:10053000084203D0EFF309800C490847EFF3088025
:100540000A49084704207146084203D0EFF30980A6
:1005500007490847EFF3088005490847FEE7FEE72B
:10056000FEE7FEE719A1FC071105FC079527FC072C
:100570006D27FC0770B50E4604460022032151F793
:10058000EAF9054652F7B6FB6880284651F7F4F9B8
:1005900052F7B0FB7188884200D3084601462046D6
:1005A00051F7D1FA002070BD0246FF4B92009A58D5
:1005B0000120126900290ED0517F5E239B5C002B25
:1005C0000BD0052906D1517E090702D5917C090778
:1005D00000D400207047917DEFE70229F9D004296B
:1005E000F7D00529F6D10020EDE7024630B593009B
:1005F000ED4A0120D2581269137DD47E157F234025
:10060000547D2C40012901D0022909D1957C527ECC
:1006100015402A0704D41A462243D20700D10020ED
:10062000032901D0042904D1590702D4610700D459
:10063000002030BDF8B514460D4610465BF76DFC42
:10064000240A002830D0D949A2008B5801271E8BDC
:10065000BF023E431E83132826D0142824D0152819
:1006600011D088582D210A5C0123D10600290CDA0B
:100670000146A0318E7D002E07D08B753D2120468E
:1006800045F7B8FE10E00220F8BD110703D50021A0
:10069000A0308175F7E7A0308375204643F7A4FBAF
:1006A0002946204643F7E3FB0020F8BDFFB581B0A3
:1006B0001546170A10465BF730FC002838D013287F
:1006C00036D0142834D0290A8C00B84E152815D0FD
:1006D000FF20294603305BF707FD30592D21095CC7
:1006E000C90603D5A030C07D00280ED03D026D1C88
:1006F000A8B25BF712FC19280CD00FE03059012189
:10070000A030C175022005B0F0BD3D21384645F747
:1007100071FE0DE0A8B201215BF7CDFB305901223B
:10072000018B5202914301833846029943F79FFBA4
:100730000020E8E7F0B59D498700C95900268031BF
:100740004A8C8B8C1B2A00D21B228C8B944200D2A9
:1007500022468A849A4200D001260B8CCD8C1B2B1A
:1007600000D21B23CC8B9C4200D22346CB84AB42CD
:1007700000D001260B8ECD8D9C46FF2349339D4230
:1007800001D21C4600E02C460D8DA54200D3254623
:100790000D86654500D001264C8EA4468C8D9C426A
:1007A00000D21C464B8DA34200D21C464C866445A9
:1007B00000D00126EB080B3B9BB29A4200D21346B5
:1007C0008B86522379495843794BCA591C68803229
:1007D0000419D28C8034E285C9591A688031801896
:1007E000498E803001863046F0BD10B50446714810
:1007F000008D8007800F012800D000206071002844
:1008000007D057F7F3FE01460622A01D5DF74EFC08
:1008100010BD06226849A01DF8E770B50546002402
:1008200042F7A9F82855641C082CF9DB70BDF8B50F
:10083000022707700126044646700D4688795F49F5
:10084000C96988472A210855287900210007000F27
:10085000A07003005DF77EFC07050709100D100B63
:100860001000A1700AE0A67026E0032002E0A77045
:1008700004E00420A07001E001281DD0A888000A2F
:10088000801FC0B2A0721F2800D9A172284642F76B
:1008900027F9811D2046A27A0B305DF707FC284618
:1008A00042F71EF901460622201D5DF7FFFB28795D
:1008B0004006C00FE070F8BDA172F0E7F7B54468DC
:1008C0008CB02546243503950546074624354CF75C
:1008D0001BFA06464420405B5221484334490968CC
:1008E0004018C0304089694608840121384647F7DE
:1008F0004AF94CF77EF809900E9800698088000A42
:10090000C1002F480818298940182D495B315DF72F
:1009100053FB01466868039D4718403528890690B7
:100920000090A0680099381A400140095DF744FB27
:100930000A910098C019401A400140096946A06018
:10094000098C4900C919891C49014909884204D206
:100950000699401840014009A06001460998081A0C
:10096000400118494009884215D900202B89A26806
:10097000401CD21852015209A260EA89521CEA8135
:10098000A368099A9A1A520152098A42EED801B212
:100990000D9847F799F9A1680998081A4201607DF6
:1009A0005209824221D80FE02C7EFD071879FD07FD
:1009B0004C76FD074C7EFD07CF79FD07B47FFD0720
:1009C00016020000FFFFFF032A898918490149091F
:1009D000A1602A890A99511A814206D901210D98EC
:1009E00047F772F9E889401CE8812989A0685DF71A
:1009F000E3FAF1802889B080208A3081A88870814C
:100A00000020B081C807C00FB073A88852214843A6
:100A10008E30308230464CF782F903984663204688
:100A20000FB0F0BDFFB5002093B006460124FE498B
:100A300049680A7821460C2A0CD06A4611730022B4
:100A40001192002E09D015990291169D1F2D54D98F
:100A5000402052E000242246119413990291149DE3
:100A6000F4E7029989184978012905D0172903D09C
:100A7000182901D0192912D1631E04E003AFFF5CCD
:100A80008F4204D05B1E5BB2002BF7DA03E0002B31
:100A900001DB4A2003E003AB1955641CE4B20B00F0
:100AA0005DF758FB1D2610101010101010101026A6
:100AB000262626262626262626262626101010102E
:100AC00010102600119B03E00BAFFF5C8F4204D097
:100AD0005B1E5BB2002BF7DA03E0002B01DB4A2040
:100AE00006E0119F0BABD9551199491CC9B2119160
:100AF0000299895C521C89188AB2AA4201D2002844
:100B0000AFD0AA4200D04A20761CF6B2022E01D203
:100B1000002894D017B0F0BD10B50022134607E0AE
:100B200084186478012C07D0845C521CA21892B2FD
:100B30008A42F5D3184610BD80188378FAE7F0B5DD
:100B40000646A9B01546002084006318DA789F781D
:100B500012025B783A4352BA1B041A430B5D072416
:100B60001B061A43231A9F0020AB401CDA510828A9
:100B7000EAD300218A0090190746C37880781B02C7
:100B8000034378785BBA00040343B05C10AA000604
:100B90000343601A800013503846223043780078AF
:100BA0001B0203433846203047785BBA3F04007885
:100BB0003B43000603430F27781A8000491C13505B
:100BC0000829D7D35CF706F9014630465CF77FFD6C
:100BD00000282DD05CF7FEF8034620AA10A968462D
:100BE0005DF780F900226846A11A8B009600C75C69
:100BF0007119CF70C75A3F0A8F70C7583F0C4F709A
:100C0000C35820311B0EAB550F239B1A9B00C65CAB
:100C1000CE70C65A521C360A8E70C658360C4E70AC
:100C2000C3581B0E0B70082ADED3002029B0F0BD7C
:100C30000120FBE7F7B500251746064641232A4663
:100C400029460A205AF7B4FF0446002E10D0012E80
:100C500002D0022E0CD105E02022611C002041F7B9
:100C6000A3FE04E0621C3946019841F74DFE207056
:100C700020465AF7B6FF2846FEBDF8B56B480090EF
:100C800007680C46002F7BD005461C35287E0028BF
:100C900076D0012802D0022872D102E02078002804
:100CA00019D038896249002688423AD107204BF78B
:100CB00023FC002835D042233E2200215D485AF70C
:100CC00077FF082101702178002913D0032141709A
:100CD0002178817043E055480226611C14302E763D
:100CE000202204465DF7E2F922465349304641F797
:100CF00015FE45E0002146701F22531A1B194718A4
:100D00005B78491CBB702029F7DB00213F22531A76
:100D100047181B1920375B78491CBB702029F6DB6C
:100D20001DE043493889491C88421AD108204BF7F5
:100D3000E3FB002815D022233E2200213D485AF72C
:100D400037FF09210170217800291BD01221417041
:100D50000021FF224318491C9A702029FADB4DF725
:100D6000D7FE2E7640205BF7A6FB009841F7DAFE0F
:100D70005AF761FF00980068002801D041F7C9FDCB
:100D80000020F8BD002146701F22531A1B19471876
:100D90005B78491CBB702029F7DBE0E770B5087869
:100DA00000250C46012809D01D2810D02B2812D070
:100DB0004022194655F7BCFE284670BD5BF765FA20
:100DC0001948012504601D4857F745FAF4E71C4807
:100DD00041F708FDF0E71B4801680029ECD101212B
:100DE0000160194841F704FEE6E770B5104D174C55
:100DF000223DAB422ED10F4809232A460021C01EB6
:100E00005AF7D6FE044608221149401C5DF74EF9F8
:100E100020790821084320710025257020464DF7D0
:100E200077FE284670BD00004C7EFD07287AFD073E
:100E3000252000000408000089E7F107030C0000EA
:100E4000C3C3C3C35077FD07CC7DFD070DC3F007B7
:100E50005CE5F107A047E5E7F1B584B00498FF49E8
:100E600080000C5804980502A81D0290002C15D093
:100E70006068818804290CD34188861D0C38009154
:100E800001903146049857F7BCFFF549884206D1D6
:100E900060680C385AF7CFFE0020606033E4F178C8
:100EA000B2780F02019928431743C880384640386A
:100EB0003F2819D803223946049854F729F8060028
:100EC000E6D0B07B0128E3D13420B07329460A3143
:100ED0000423E448029A5AF76BFEB189418010213D
:100EE00001705AF77EFED3E7616834200870022152
:100EF00000985AF74FFD05463146009A5DF7D6F83F
:100F000068782978000208436168C880E878A97881
:100F1000000208436168062F08810BD0042F09D016
:100F20006068052F10D00C385AF785FE28465AF70E
:100F3000ACFDB1E760688188052913D329798172F6
:100F40006168287988720DE0818805290AD329799A
:100F5000817261682879887260688188062901D366
:100F60006979C17260685AF73CFEDFE7FFB587B068
:100F70000E4609985AF7D1FF0999090A03910028EA
:100F800076D08800B54905900D58B749B079096BFE
:100F90000A225043B478081841F7A2FD019068680E
:100FA000002808D0012C2DD00398FFF755FF686862
:100FB000002802D026E0022C5AD1B088012702284E
:100FC00005D30198417800780C02044302E051F700
:100FD00091FE044651F78EFEA04201D20224002762
:100FE00020464C3083B29E49A048099A5AF7E0FD4A
:100FF000241D68604480002F01D0002000E03420D0
:101000006968087068680028BAD0811D0091B288AC
:101010000199841C071D01928088238882189A42B6
:1010200009D8009A8018019A5DF740F8398801982C
:101030000818388009E01A1A009BC0185DF736F8C6
:1010400020883880696834200870388804280FD3D5
:10105000009841780278080210432188001D8842D8
:1010600007D280B220803988814207D9388002E0D7
:1010700068E0884202D9696834200870388821887D
:1010800088425FD1686800990C380190039857F73F
:10109000B8FE69680978002951D1714988424ED05B
:1010A00003990F0201993843C880208802210190DA
:1010B0005AF770FC0490228800995CF7F7FF0498B7
:1010C00000283FD0696800208880019802226B4682
:1010D000039907C36868049B821C011D801D41F7AA
:1010E000D9FB6968087004985AF7CFFC6868418892
:1010F000002902D00178002954D0018940393F29C4
:1011000044D8017830291ED00146544A05980C393C
:101110001058083041F722FD69680398891D41F78E
:10112000CAFB4628686801891FD00322039853F739
:10113000EFFE00282CD0808A00282CD028E00398CD
:10114000FFF78AFE42E04A49098D0906C90F07D018
:1011500048490C380968099A898D89B25AF75EFDA9
:1011600068680C385AF767FD12E00322039853F7BA
:10117000CFFE04000CD039460A3104233948099ABD
:101180005AF716FDA1894180102101705AF729FDF7
:10119000002068601AE0686800220189039841F71E
:1011A00085FBF5E70189084640383F280ED8032221
:1011B000039853F7ADFE002808D0808A002805D197
:1011C000686800220189039841F770FBB07941F704
:1011D0007AFC00200BB0F0BDFFB58BB00646169828
:1011E0000027022821D00D980188149881427DD3D0
:1011F0007188084640383F2802D8159853F7C9FE31
:101200000C98361D0088149A80190E995CF74EFFD1
:101210000C980188149808180C9908800D9801887A
:101220001498081A0D99088069E100200E9D079016
:1012300069782C78090221433180E978AC78090279
:10124000214371808C46403904242D1D02460346FB
:101250008E46402900D3287861460DE0AC7DFD071D
:10126000FFFF0000260E0000E078FD07010A0000E5
:101270004C7EFD075876FD0704291FD0052914D0A0
:10128000062918D070463F283ED8159853F781FE9E
:101290000006000E04D0FC48008D0006C00F31D0BF
:1012A00002230120F94A002712E0697800290FD0B3
:1012B000F74A17230CE0F74A0F2309E0522802D01F
:1012C000D22802D002E0142000E01520F24A1F23A9
:1012D000002A7DD098427BD28000105804900028CC
:1012E000F7D0002008900590708800E006E14038B3
:1012F000402803D32878052430716D1C701D0090A0
:101300000498AFE03027EDE03327EBE0522864D0BB
:101310000CDC4B283FD004DC41286AD042285AD14B
:1013200011E04C2820D0502855D140E0632830D01F
:1013300004DC572818D061284DD19BE06C2864D07C
:10134000772848D109E00098297801700098641C3A
:10135000401CA4B26D1C009081E00498401C0490D5
:101360000178089881427AD10098A41C401C410859
:101370004900881C009068782A7800021043088091
:101380000599AD1CA4B2002969D0089000200590F1
:1013900065E00120FBE71022294600985CF786FEF5
:1013A000009810341030A4B21035009057E0204659
:1013B00040301499039088420DD840222946009865
:1013C0005CF774FE009840300090039884B200E00F
:1013D00079E0403543E0342741E00822294600986F
:1013E0005CF764FE009808340830A4B20835009019
:1013F00035E00622294600985CF758FE0098A41DA7
:10140000801DA4B2AD1D009029E01498001B80B28D
:1014100003903088001B001D81B2012007900498C2
:10142000401C04900098401C400840000090049824
:10143000007857281CD04228CDD100980170090AA5
:10144000417000982946801C0090039A5CF72EFE9C
:1014500003980399201884B20098401800900498CB
:10146000401C04900078002820D0002F19D01DE0E7
:101470004908E2E71498001B80B203900098039A91
:10148000401C41084900012000910790294600981E
:101490005CF70CFE03980099201884B20398081892
:1014A000DCE70D990988A14200D32FE70D98008849
:1014B000A04208D304990978002904D1079900298A
:1014C00003D1A04201D034270CE00D99001B088005
:1014D0000C9801880098801B001F08180C99002F99
:1014E00008800CD07088042809D0062807D040381E
:1014F000402804D30E984079707100E034273846B4
:101500000FB0F0BDFFB581B01F4616460C46104621
:101510005AF703FD00253F2802D02189062908D06B
:101520003B4632462146019854F7BFF80546284607
:10153000B4E4000701D50225F9E720780028F6D1A8
:10154000300AA11D41F7C1F8F1E7F3B581B0019868
:10155000524C850060590F464068CE8801462431C0
:10156000009146F7E3FE00994D4A40310091C98948
:10157000701A80B2904214D2B14212D060593146F2
:10158000406845F78CFF60590522791C1F305CF7D5
:101590008DFD019805210002401C80B25AF78BFC9A
:1015A000FEBD60590522791C1F305CF77FFD009855
:1015B000808841F767FFFEBDF8B53A4C06468500C6
:1015C0000F4660594821095C24290ED10069102278
:1015D000791D2E305CF76AFD615925204031087273
:1015E00000221146304652F739FE60594821095C05
:1015F0000C291FD100691022791D2E305CF756FD91
:1016000060595F210069095C09072DD401462E311C
:1016100010221E305CF76EFD00280CD060590921A5
:1016200040300172304653F737FB01460022304606
:1016300052F79FF9F8BD0421684601706A460521FA
:10164000304652F741FB6846017860200143684606
:101650000170304653F720FB0146684602780123AB
:10166000304652F79BFAF8BD304653F715FB012878
:101670001AD06059072140300172002211463046CD
:1016800052F7ECFDF8BD00004C7EFD0714F3F107A6
:101690001CF3F10778F3F107B4F3F1071879FD07AC
:1016A000FF7F00002C7EFD07615900200969C031D1
:1016B000887160590421026930461E3252F704FBDA
:1016C000605901694031897F002907D01A214030D3
:1016D00001720021304652F74BFED3E71B21403008
:1016E0000172304652F799FECCE7F8B5E64C054654
:1016F0008600A0594822125C192AC3D140224930E1
:10170000491D5CF7D3FCA0594022E04949305CF701
:10171000F1FC002805D0DD492846203959F749FF5A
:10172000B0E70B21684601706A460521284652F74A
:10173000CBFA68460178602001436846017028466C
:1017400053F7AAFA0146684602780123284652F761
:1017500025FA97E7FFB581B003980C46060A0025E5
:101760005AF7DBFB002818D0132816D0142814D001
:10177000C748B700C0592030407BC00628D5039821
:101780005AF7CBFB15280CD0A07941F79CF93046CD
:1017900045F7B3FD032806D015E0A07941F793F98A
:1017A0001FE002251DE0BA48C0592030407B4007A9
:1017B00004D53D21304641F7BEFD04E03D22002125
:1017C000304641F7C6FD3D21304644F713FE08E0A0
:1017D00020460C38AF498180C68020464DF798F9E5
:1017E00001252846A4E6F1B58EB00E9841F778F9A8
:1017F00004460E98694600794006C00F0A9006908C
:101800000A208883628BA449101A88427ED2E08A1B
:1018100006287BD31921C901884277D8238BFF2161
:10182000F5318B4272D85B1C990059184143491C11
:101830000A2349105A43914268DC217F00290CD1C8
:10184000617F002909D1A17F002906D1E17F00290C
:1018500003D12021095DC90658D027462037797861
:10186000C906C90E491F0C2950D2A18A81424DD800
:10187000E17C00294AD0421E082A01D9082000E054
:10188000401E814242D805A844F79CFD00283DD166
:10189000824D0622E861214608A85CF707FCA8787B
:1018A0002E46803E00287ED06079800901280AD02B
:1018B00020460A994AF7C4FE00285ED03821095C08
:1018C000002954D059E020464AF727FFE861002854
:1018D00004D10BA920464AF736FFE861F16A887AFD
:1018E000012801D0042810D1E86900280ED0062272
:1018F000253010315CF7FEFB002807D1E869F16A5A
:101900002030C07AC97B884200D100E0A2E0E969BA
:10191000002932D0062208A825315CF7C7FBE86908
:101920002B21095C07AA253006914AF76BFD002898
:101930000FD0E8692030C07A002811D16846584994
:10194000808B49F711FD07AA012155484AF75AFD36
:1019500006E007AA01210BA84AF754FD00280CD085
:10196000E9696846808B323149F714FD05E0421879
:10197000527D002A08D010296CDBF06A407A0228D8
:1019800006D0032804D00EE0491C1029EFDBF4E751
:101990006846808B0A2806D307AA20460A994AF788
:1019A00031FD002856D0002205A920464AF7D4FD73
:1019B00000284FD1F06A407A02280BD0032809D0C2
:1019C00000236846828A08A806994AF7E6FD00289F
:1019D00002D02EE00123F4E7E18A68460180218BE2
:1019E0004180618B81807878062241096846817345
:1019F0007878C106C90E684641732146801D5CF7A0
:101A000055FB0E9800794006C10F68460173838A22
:101A10002146B26D45F783FC0146B065684641F743
:101A200029FB0020B065214668461C31808A44F7B6
:101A30001CFD47F7BAFC194C20342079002805D04A
:101A4000002109205AF750FB002020710021084690
:101A50005AF731FA54E510B57022124912485CF772
:101A600025FB10493822383910485CF71FFB0E4817
:101A70000F49A03001600B49703941600A490D4897
:101A80002039086010BD70472C7EFD07EC7DFD07F6
:101A90001879FD0706080000770C0000E479FD07BF
:101AA00004E5F107C8A1FC0720000840C000FC07BE
:101AB0008CBFF107FF3F1000F8B53E4C6088C607A9
:101AC0006088F60FC005C50F608840084000608040
:101AD0006088FF270137B843608040F771FF40F707
:101AE00075FF00220821022040F764FF002800D083
:101AF00001206188A18861884908490031436180DB
:101B000061882A02B94311436180F8BD70B501258F
:101B100029492A020A60BFF34F8FBFF36F8F27490D
:101B20000A6027490B681C0A240240231C430C60EE
:101B3000214980390A601F494C880626B443241D78
:101B40004C804C882C434C804C8838252C434C804E
:101B50004C889C434C8001280FD14888330218439D
:101B6000488048881043488048882A0210434880AB
:101B70004888012292039043488070BD10B5114CF3
:101B8000E18A114ACBB21189248BC904890E6404FD
:101B9000640E001B093141430120C002401A80B28B
:101BA000584340031189000E090A090201431181BB
:101BB00010BD00002020005080E100E080E200E045
:101BC00008E400E000230050002C0050F8B50202A9
:101BD00005464123092134480A3259F7E9FF2721F4
:101BE0000170044600201F233049AA008F581E1A96
:101BF0004936BE5D2718401C7E702028F6DB002089
:101C00003F238E581F1A4937F65D27182037401C8E
:101C10007E702028F5DB5BF7DDF80146601C5BF782
:101C200056FD002812D10A2000906A460521284658
:101C300052F74AF8284653F72FF8009960221143CB
:101C4000CAB201460123284651F7A8FF204659F79A
:101C5000C8FFF8BD70B505460446008914490C3428
:101C600088B088421AD100201F216E460A1AA25C51
:101C70003254401C2028F9DB2022314620465CF7F4
:101C800015FA00203F210A1AA25C3254401C202879
:101C9000F9DB20226946A0185CF708FA284649F7C4
:101CA00024FB08B070BD0000270D00002C7EFD074E
:101CB00026200000F0B51FB40646002082B005467D
:101CC0004024019100901BE0019922460F463046C6
:101CD00000F0C4F9049A059B801A994110D310466C
:101CE000194622465CF726FA361A8F41019722469A
:101CF00001200021009F5CF71DFA38184D4100902B
:101D00002046641E0028DFDC019B009829463246ED
:101D100007B0F0BDF0B507460846584087B0C00F81
:101D2000049048000E46590040084908BC1A8841F2
:101D300005D2384631461E4617460B460246580025
:101D4000400810434CD0300D039040055900400D21
:101D5000490D0590401A0290402872DA18030121BB
:101D6000000B09050843019004980092002805D053
:101D7000019952420020884100920190029840212E
:101D80000A1A019900985CF7D5F905460C466B468E
:101D900007CB00F074F9C0197141039A0E0D0023AE
:101DA000D71756401A467A40164344D0049A002A60
:101DB0002DD0029A012A039A15DC1205C01A91410E
:101DC00001263605001C7141D20F059ED2070093F3
:101DD000019202962A46234600F071F907B0F0BD41
:101DE00038463146FAE71605224A0F46B218C01A9D
:101DF000B74101210905001C4F4100187F411146E0
:101E000018187941E20F10436D19644113E0E2079D
:101E10006D0815436408C2071443039A012612058E
:101E2000C01A91413605001C7141CE07400830436D
:101E30004908C01851412A46234600F033F9CDE73E
:101E4000FFE7049801224000C117121A00238B41BA
:101E500004983146C417381AA141EEE730B4012482
:101E6000E407634030BC55E730B40124E407614027
:101E700030BC4FE70000E0FFF0B51FB488B00B990D
:101E80000998002448400999C00F49004908099160
:101E9000C0070B990090490049080B9109990898CF
:101EA000A64608431CD00B990A98084318D00998F5
:101EB00001244000420D4800410D0998240500030B
:101EC000000B204309900B980003000B20430B905C
:101ED00050181C494018002201901446104605E095
:101EE000002001460DB0F0BD032801DA034600E0F2
:101EF00003239C46C11A0AAE0AE05F0008ADED5B01
:101F00004F00F75B7D430027AA187C41491C5B1EEC
:101F10006145F2DD410004AB5A522104120C0A4320
:101F2000240C401C0828DFDB0198029000997046C1
:101F300001910090059B049A0799069800F0BFF85C
:101F4000D0E700000DFCFFFFF0B50C465C4085B00B
:101F5000E40FE40703944C000026640859009446FB
:101F6000490802460296224321D062460A431ED007
:101F70006200570D4A000E032303550D012402464B
:101F80002C492405781B1B0B360B40182343264392
:101F9000614600901C46501AB44103D30098401C7F
:101FA000009002E0921800985B41002803DA0020BC
:101FB000014605B0F0BD002001210905074686460F
:101FC00011E064461D46141BB54106D36546521BFD
:101FD000B341744607430C43A646CD074008490861
:101FE000284392185B4105460D43EAD11046184339
:101FF00013D06046194650407140084306D06046F1
:10200000101AB34106D20122002306E00022012368
:10201000DB0702E00122D243531000987446010509
:10202000381C6141029C039D0019694100F03AF897
:10203000BFE70000FD030000064C0125064E05E049
:10204000E36807CC2B430C3C98471034B442F7D3D9
:10205000FEF762FA84D8FC07B4D8FC0710B5202A32
:1020600004DB0846203AD040002110BD0B46D34087
:10207000D0402024A21A91400843194610BD10B543
:10208000202A06DBCB170846203A1041C1170B4324
:1020900006E00B461341D0402024A21A9140084389
:1020A000194610BD10B5002B08DA0024401C614110
:1020B00092185B411A4301D14008400010BDF0B5B1
:1020C0001FB482B005460C0003D0084607F0C2F9E1
:1020D00002E007F0BFF92030024600902146284672
:1020E0005CF728F8049B059A04460F4618431143F1
:1020F000084314D0184610431BD0009840210A1AF8
:1021000018460599FFF7AAFF05460E46009A05995D
:1021100004985CF70FF8084305D0012004E020463E
:10212000394607B0F0BD0020C11705430E432C43CC
:10213000374300990E986305401A7905E40A002296
:102140000C43FD0A0A3002D500200146E9E70105EB
:10215000101969410C9C0D9D00196941FFF7A2FF00
:10216000DFE770B54B005B0803430BD04B005C0D01
:10217000002633466542B341D417AD1AA34102DBB2
:102180000020014670BD12053018514170BD00009D
:102190000EB5C217C10F5040CA0740180021054BA9
:1021A0000293019200910A460B46FFF788FF03B0A5
:1021B00000BD0000330400000EB505490291002166
:1021C00000910A460B460191FFF779FF03B000BD6D
:1021D0003304000070B5CD0F4A0009030123090B39
:1021E0001B0519430B4BED070024520D9A4201DAEF
:1021F000002070BD074B34339A4203DC9A1AFFF774
:102200002DFF02E00449511888402C43F1D0404290
:1022100070BD0000FF030000CDFBFFFF014801215E
:102220000180704708150050F8B505252C07608916
:102230008007574E23D0A08A400701D505F0E6FB62
:10224000218C802001432184FF2171800421318071
:10225000218830220A432280218803220A432280D7
:102260004C49F288B3881204D2188A42F9D33580D7
:102270004021494A515A6180218C81432184474839
:1022800001884907FCD4218830208143218022889D
:102290000327BA4322800022009701231A404049B5
:1022A0000A702A0653D06D1E32883946022717431A
:1022B0009F433780042272803788174337800F4648
:1022C00022880243228022880A43228032885207D1
:1022D00001D500BFFAE72288014682432280228886
:1022E000BA432280F288B7881204D2192D481218F6
:1022F000042A13D94622002727488752077B002F3C
:1023000002D0192217012448C26D921CBA4200D390
:102310003A46C2651A46009F0846BEE746231E4855
:10232000C25A521CC25292B2142A009F0FD30022EA
:102330001948C2520246007C002800D01320D26DFA
:10234000521E824200D802461348C265009F61892E
:10235000890706D06189B9436181608C0121884376
:1023600060842089802101432181208A04218843BF
:102370002082A08A8007FCD540F701F80648406E0D
:10238000094908600948016801684907FCD5F8BD9A
:1023900000160050E90300006438FD0708330050C0
:1023A000DCD9FC0761F8FFFF080200401000004084
:1023B00080B505F017FE80BD02480188C907FCD131
:1023C0007047C04640300050B0B5054C20212180F8
:1023D000044902250D80FFF7EBFFE587B0BDC0463D
:1023E0000430005044300050B0B5CE4920220A805D
:1023F000AD4C02256580FFF7DBFF2580B0BDC046F0
:10240000F0B591B016460A91019017980690001DFC
:102410000090169D281D0390002007901998109099
:1024200018980C90029205951878002800D121E1A7
:1024300001061ED4002D2CD02978401A6978072275
:102440000C460E9214400F91C9080994002C00D03C
:10245000491C00287BD4AF78794348432A46039C23
:1024600025186818D2784A43A11888422FD9059DAB
:102470006DE00699002900D1FAE000221146052AF4
:1024800000D1EFE00446944024060FD5521C491CAD
:10249000F5E70699002900D1EAE0202800D0E7E01E
:1024A00007988019069949784908DFE0724A114077
:1024B000042950D0032962D0022900D0D2E05978F3
:1024C000002900D1CEE05B1CC006420D63E00493FE
:1024D0000198079908180D900021089788B2B84212
:1024E00030D20A980B910C180026B7B20F98874289
:1024F00020D20E9807408021F94028780840109992
:10250000FF2905D1002810D00D98801980B204E071
:102510000D998919002803D088B2A1B20C9A02E063
:1025200088B2A1B2109A00F031FB072F00D16D1CC8
:10253000761CDAE70998002800D06D1C089F0B99DB
:10254000491CCBE7059D68780F90049B029E079875
:1025500080190F998AE05A78002A00D182E09C788D
:10256000002C7FD0D97800297CD0DB1C4007C00A22
:102570009206920B1018A206120D82180BE05A78E0
:10258000002A6FD0997800296CD09B1C0007000CA2
:102590009206120D12183F20084010435ED004939B
:1025A000069B5C78072122460E910A40511E089234
:1025B0008A410F94E10889189A7809925143CA1CFC
:1025C000DB785B1C009D5B1E46D0AC182E78360471
:1025D0006F783F02BE19AD78751985422546F2D154
:1025E0000198079A10180D90671A0022059D90B265
:1025F0000999884234D20A980B9216180024A5B281
:102600000F98854220D20E9805408021E940387805
:1026100008401099FF2905D1002810D00D98001905
:1026200080B204E00D990919002803D088B2B1B234
:102630000C9A02E088B2B1B2109A00F0A7FA072D06
:1026400000D17F1C641CDAE70898002800D07F1CAA
:10265000059D0B9A521CCAE7049B029E059D01E052
:10266000049B029E079880190699497840180790A4
:102670005B1CD9E611B0F0BDFF7F00000A480821BD
:1026800001800321090241810122428000228280CF
:1026900002220280C18023488022028041822022BF
:1026A0004280C1817047C0464230005080B50A2048
:1026B00000F03AF880BD80B50B2000F035F880BD01
:1026C00080B50C2000F030F880BD80B50D2000F002
:1026D0002BF880BD80B50E2000F026F880BD0000EC
:1026E00070B5032800D1042040010E4C049D002D3C
:1026F00003D001258D40055303E0251801268E40A7
:102700006E801343490061180818838070BDC0466D
:1027100001228A40032800D104204001014942528D
:102720007047C0460230005070B5C0B203460A3B45
:1027300001210A469A4093B20A4C1C195C40660873
:10274000094B1C880025360402D06D1C760CFAE774
:102750009443AAB20D46954025431D8081401A48F6
:10276000016070BDFFFF01000E1400500348C82136
:102770000180034808210180FEE7C0460031005077
:1027800002330050024800880F4810210160704752
:102790002C1300500B48018904220A43028101894D
:1027A00002220A430281018840220A43028006492C
:1027B00001220A604189054A11408918091D418199
:1027C0007047C0460800005080E200E0FC7F000037
:1027D00070B52020EB4A105C012817D1107E00282C
:1027E00000D00D20117F002900D0D421526A00238F
:1027F0008B420BD014460546002D04D0FF262670D0
:10280000641C6D1EF8E712185B1CF1E770BDC04632
:10281000F0B591B010920A910746DA480178012983
:1028200000D0E6E00079002800D1E2E07800032142
:10283000081A0290012B75D100213AB208B2099210
:10284000904200DDD5E041200890401A0790C22058
:102850000690401A05900846413004900846C23060
:10286000039001910A460B9710B20999884246DC01
:10287000039880B20F90114641318DB2012629464E
:102880000A9F10923A4633465B4CA047059880B2A7
:102890000D9029463A463346A04706981099401AAB
:1028A00085B2049881B20E9128463A463346A04735
:1028B000079881B20C9128463A463346A0470898BB
:1028C0001099401A85B20D9829463A463346A047DA
:1028D0000F9829463A463346A04725461098C230FD
:1028E00084B220460C993A463346A84720460E99B2
:1028F0003A460B9F3346A847109A521CB4E70298F9
:1029000000B2002805D4019AD01B80000A307F1E37
:1029100002E0019A9000801D029941180291521C18
:1029200011468AE7002538B229B2814261DC284687
:10293000C23080B20E903946413189B20D910A9E63
:102940003246109B2C4CA047C2200B900F95401B89
:1029500080B20C900D993246109C2346264EB0470B
:102960000B98C01B80B208904135A9B20D910A9D09
:102970002A462346204EB0470B9741270F98381A16
:1029800081B2099108982E462A46234625461A4CBC
:10299000A0470B98381A0B9F81B208910C983246C9
:1029A0002B46154CA0470E98089932462B46A04757
:1029B0003846C23084B22046099932462B460E4D25
:1029C000A84720460D993246109B0B4CA047029811
:1029D00000B2002805D40F9DE81B80000A307F1E3E
:1029E00002E00F9DA800801D0299411802916D1C04
:1029F00099E711B0F0BDC046C12AFC07F0B58BB015
:102A0000029305920A91074684490878002800D06D
:102A1000D420B8420CD30979002900D068210A9A41
:102A2000914205D3059A904202D30298814201D285
:102A30000BB0F0BD0020C043012302990A9A8A42DC
:102A40000493019300D3019005998F4200D3049021
:102A5000119808901098079002980A99401AC11787
:102A600044184C40059AD21BD317D2185A400394ED
:102A70000992151B4840081A0690BCB20A9886B203
:102A800020463146079A089B00F01AF8680006991C
:102A9000814207DC05988442CAD004983F18039805
:102AA0002D1A680009998842E7DC02988642BFD057
:102AB0000A98019940180A9009982D18DDE7C04638
:102AC000FEB51C460292554A1378002B00D0D42341
:102AD000834205D31279002A00D068228A4200D2AC
:102AE000FEBD4E1E401E0090002108B2A042F7DA43
:102AF000009801914718002528B2A04207DA701902
:102B000081B2B8B2029A00F041F86D1CF4E7019965
:102B1000491CEAE7FEB5029315460E4607463F49B3
:102B20000878002800D0D420B8420AD309790029B7
:102B300000D06821B14204D3A84202D30298814256
:102B400000D2FEBD089CB1B202988142F9D20120A8
:102B50000094019038462A460B46FFF74FFF761C3B
:102B6000F1E7C04620202D4901220A540A730A7257
:102B7000054848620A770A76002008750A740A71C7
:102B80000A70704710DAFC07D81EFD0770B5234B9A
:102B90001C78002C00D0D42484423DD31C79002C16
:102BA00000D068248C4237D31E7C002E0C4600D106
:102BB00004461D7B002D00D0D425002E01D0C0433B
:102BC0002918187D002801D0C8432918187A002830
:102BD00000D0682084421FD81D7B002D00D0D42552
:102BE00088B2A84218D82021595C012914D10721A4
:102BF0001E7E002E00D00D26802521407043E40863
:102C000000195B6A1C5C002A02D0CD402C4302E014
:102C1000EA430A4114401C5470BDC04610DAFC0758
:102C200070477047F8B5224CD54E224FA1880F202F
:102C30000840022806D004281ED00C281FD00128E6
:102C4000F4D133E0A348006A5022B15A4C23F55A1C
:102C5000A9421BD2A388C0251D40C02D03D13B88AB
:102C60009B0703D4E2E7238A9B06DFD54B1CB352B4
:102C7000415C221F1180E7E706F014F9D6E706F061
:102C800011F92088012188432080CFE72088022184
:102C90008843208020888021884320808D48406A96
:102CA0000028C3D0F05A06F0AFF8BFE7F8BDC04621
:102CB000041100507C1100500520000701883022CB
:102CC0009143018001880322914301800421415EE8
:102CD000002906D50E490A88520702D50A88D2076C
:102CE0000DD18088C00609D50A480188090605D596
:102CF00001218180018880229143018070470888EA
:102D0000022202430A80088801229043088070470B
:102D1000000200500001005010B50468091BFF318B
:102D2000994208D3194606E01378237003685C1CA7
:102D30000460491E521C0029F6D10020207010BDED
:102D40003748018802220A4302800549491C02D201
:102D500002889207FAD40021018140897047C04659
:102D60005F79FEFFFEB505461448029002AC20468E
:102D700000F028F8142000F05FF807208601002DED
:102D800000D08036264F38880D4908408019388099
:102D9000FFF7D6FF0190012000F04EF80025A57046
:102DA000204600F00FF8388805490840801938801F
:102DB000FFF7C6FF3D8001994018FEBD01000101EB
:102DC0003FFC00001649174A0A8000224A80164A32
:102DD00040231360BFF34F8FBFF36F8F00281ED0C7
:102DE0000A88124B13400278D2021A430A80104A12
:102DF00040320B881340427892011A430A800A88B5
:102E00000C4B1340827892021A430A8009224A80AE
:102E10004A8802239A43C078400010434880704794
:102E2000001500500140000080E100E0FFF70000C5
:102E3000FFFBFFFFFFFB000000280CD000BF00BF1E
:102E400000BF00BF00BF00BF00BF00BF00BF00BF8A
:102E500000BF401EF0E77047F8B52324C64F38572F
:102E60001B4D2E461F36002800DA354604F00CFDB7
:102E7000385D7F2101406818F2492E3106225BF748
:102E800015F92220385C009021243D5D124809216B
:102E90000422412358F78CFE0746457010203870F5
:102EA000B81C0B492A465BF701F9009A3A55384697
:102EB000223031465BF7FAF8384658F792FE074859
:102EC000074900F0EBF92021AB4A5054F8BDC04649
:102ED0004839FD07E038FD070E0D0000B80B000073
:102EE000592EFC07B0B5A448817D012920D1C37DAE
:102EF000591E8B41017E002900D007219B01C57E10
:102F00000C4C002D07D001258D40A11C0B431D80CA
:102F10000A23002406E02343012425468D401D801A
:102F20007D218B00C476754811461A4600F0FCFCE2
:102F30000020B0BD0230005070B58F49087F0128D5
:102F40000BD101235C024E7F0F480E4D012E0DD197
:102F50006C8000234B770A230CE0012040020949D2
:102F600008800948042159F7BFF807E02C804B7707
:102F70004B218B0011461A4659F76CF8002070BDA2
:102F80006438FD07423000501504000070B59748C2
:102F9000092104241C23224658F70AFE05461B205B
:102FA00028702426304603F0CDFE0121A9742C821E
:102FB0000021E981064AAA81FF2202322A816C603F
:102FC0006E806870A972284658F70BFE70BDC04627
:102FD000AD270000B0B5044624203FF730FC014681
:102FE000092080020422134658F7E2FD00254570AF
:102FF0000470614C617D8170C57058F7F2FD01204D
:103000002076FF210231E182617D002900D16575C2
:10301000A076144804210A2259F71CF8B0BDC04616
:103020001FB5144606220292044A0192069A0092A3
:103030001A46234600F014FB04B010BDB8A9FC07E3
:1030400010B5144600F010F84B48827E002A00D0DC
:10305000034A0448214600F067FC002010BDC0462A
:103060007017000013040000B0B501F003F8044627
:10307000414D687D84420FD224203FF7E0FB01469A
:103080001D480422022358F793FD4470002101706B
:1030900058F7A7FD6C752046A97D01292AD1174C48
:1030A000062812D8E87D411E88414000297E00296B
:1030B00000D00721FFF72CFB0120E8767D2082005D
:1030C0000421204658F7C6FF687D0D2812D3A87D3D
:1030D000012809D1E87D411E88414000297E002950
:1030E00000D00721FFF714FB0421204658F7FCFF0E
:1030F0000020E876B0BDC0460224000014040000A1
:1031000070B53A48092104241823224658F750FD87
:1031100005461B202870FD26304603F013FE0021D3
:10312000A982E96029616C606E806870284658F752
:1031300058FD70BD0120704780B50F48C17C032940
:1031400007D1017D01290CD10021C1740175012035
:1031500080BD4A1CC2740C204843084908184068C6
:1031600006E04A1C02751C20484305A10818C068E7
:103170008047002080BDC0466438FD07C0A8FC071A
:10318000FD00000038AAFC070E0000000131FC071A
:10319000000000000000000000000000FF00000030
:1031A000000000000000000000000000000000001F
:1031B000000000000000000070B50C480921042444
:1031C0000A23224658F7F4FC05461B2028701426D3
:1031D000304603F0B7FDFF21743129816C606E80A9
:1031E0006870284658F7FDFC70BDC0461B0D0000F6
:1031F0001FB5144601220292044A0192069A0092D7
:103200001A46234600F02CFA04B010BDE8A9FC07CA
:1032100010B5044601020A3109480422022358F776
:10322000C7FC0C216143074A51183F2200238B54ED
:10323000132141700121017058F7D3FC10BDC04625
:10324000040E0000E038FD07F8B500920D4681003D
:10325000104A56585418002E0AD101020A310E485D
:1032600004271E233A4658F7A3FC06460770206041
:10327000B71C102138465AF732FF38462946009AC3
:103280005AF714FF01207070304658F7AAFC00204E
:103290002060F8BDD41EFD07140E0000B0B5002854
:1032A0000ED002461148824211D8002421482346FC
:1032B0000A2B19D00568002D10D0001D5B1CF7E704
:1032C0008348C8210180834808210180FEE78048A7
:1032D000C82101807F4808210180FEE701605C1C55
:1032E000E0B2114600F056FFE0B2B0BDFCFF3F0077
:1032F000F8B50446401E09281AD8A0000D49401808
:10330000071F3868002813D00B4DA84210D00B4877
:103310002018401C0426314658F7E6FE3D6008237D
:1033200006483146324658F743FC047058F759FCBA
:10333000F8BDC046AC39FD07298DFC07020400002A
:10334000F0B585B0039302920E4607460020041D97
:10335000242C0ED004A900910A490D583846314654
:10336000029A039BA84700282046F0D104A80078C1
:1033700006E038463146029A039B05F07BFE0020AA
:1033800005B0F0BD10AAFC07FEB5064608050D0BFA
:10339000002800D06D1C002D00D101258548064075
:1033A000FF2000241A4F0195AC422CD004F08AFE75
:1033B000002828D104F006FF002824D1022004F0C0
:1033C0001BFF012040070296304304F029FF00262E
:1033D000104D04F0BFFEC0070CD038880006F8D5A9
:1033E00028680004F5D40C4886420BD0761C58F7A8
:1033F000F4FFEEE7029805490818461C641C0020FB
:10340000019DD1E7FF2040B2FEBDC046FF0F000086
:10341000080000503000004080841E00F0B585B0E8
:103420008A4206D2A848C8210180A8480821018004
:10343000FEE70446101F02900492D01E01900091F6
:10344000C81E039000252846C7B20398874215DAA4
:10345000F843049946183FF78EFA010EA155A119B9
:10346000491E020C0A700199C91B020A6254029992
:10347000C91B6054381D291DCDB2E5E70098401BDB
:1034800001060023DE43002914D07543049909196D
:1034900049194D1EC0B2C70003933FF76CFA039B56
:1034A00018217A18182A05D00246CA402A70AD1988
:1034B0000839F6E704980099411AC8B20919491E5B
:1034C000002803D00B708919401EF9E705B0F0BD44
:1034D0000031005002330050F0B587B015460E465B
:1034E000049034480840884202D13046294608E01A
:1034F000A9190A467240120B05D001221203801846
:10350000091AFFF741FF0024204604F075FE2A48FF
:103510008068871BAF4200D32F4601200390000232
:1035200006903018FF218843411E019425463C46F1
:103530000297BD423AD2A0198842059101D9881B51
:10354000441C04F0BFFD002831D104F03BFE0028EC
:103550002DD1022004F050FE04F068FD03984006CF
:103560000643304604F03EFD002004F045FEA0B2C4
:1035700006998842264600D3069E049847193004CF
:1035800005D0387804F02EFD761E7F1CF7E704F096
:1035900045FD04F003FE002809D106980599081896
:1035A0006519029F7C1B4E1C0146C2E7019807B0BB
:1035B000F0BDC04600F0FFFFD0D9FC071FB5144690
:1035C0000E220292044A0192069A00921A4623465B
:1035D00000F046F804B010BD10A9FC0710B5014674
:1035E00001200A4A914210D3121D91420DD8029C2B
:1035F000F231C8B28100064A5058002803D0511851
:1036000000220A6080470020207010BD0E040000D8
:10361000C01EFD071CB52C23744CE35C132B03D197
:1036200001AB04F067FD1CBD0020C0431CBDC046BB
:103630001FB5144607220292044A0192069A00928C
:103640001A46234600F00CF804B010BD80A9FC0710
:10365000E0B504F089FD01A804F0F8FC8CBD000081
:10366000F0B585B001250C9C002C20D0019502916D
:10367000039304920B9B0A99E500ED18083D661C24
:10368000104B761E012E11DB2C462F88874203D06B
:103690002546083D9F42F4D16468002C0AD00D46AF
:1036A00002AB0ECBA0472870002500E0019D284604
:1036B00005B0F0BD9748C8210180974808210180D6
:1036C000FEE7C046FFFF000000310050023300500B
:1036D00070B50B480424092122460B4658F768FAB6
:1036E00005461B202870FC26304603F02BFB0021EA
:1036F00029726C606E806870284658F772FA70BD47
:103700001B0D00001FB5144604220292044A0192C8
:10371000069A00921A462346FFF7A2FF04B010BD96
:10372000F0A9FC07F8B504461C48C0680F21014009
:10373000E171010F2171C1B20909A1710101090FE4
:1037400061710103090FE1700102090FA170010508
:10375000090F61700004000F207001220092032203
:10376000150208230E4F2A46B847E179A0790026B2
:10377000009607232A46B847E178A07800960623EA
:103780002A46B84761792079009605233246B84722
:1037900020786178E84A51721072F8BDE038FD0770
:1037A000E126FC07F8B52C24FB4D285D032817D132
:1037B000EFF31087012686F310880D480188B14386
:1037C00001800C4801880C4A0A40028004F026FC63
:1037D000002F02D086F3108802E0002080F31088CA
:1037E00014202855002004F0D1F8F8BD6438FD07F6
:1037F0000012005004000050FFF7000070B50C46A6
:103800000146049D3F4881421FD03F4A914229D042
:103810003E48814238D12078401E09284FD8800088
:103820003E4A11583F4B994265D03D48814266D18E
:103830003548042108230A4658F7BAF9217801705F
:103840006168416058F7CDF959E06268002A44D0B8
:103850002F48824248D220782B494018042158F73B
:10386000F9FB4CE02078411ECAB2092A2ED8890003
:103870002A4A53582A4EB34241D151188A6A0A60E3
:10388000616800F087FC3AE0531C0120994238D36C
:103890000A32914235D8C81EC0B2411E8A001F4B61
:1038A000995800292BD01E4CA14228D01D4CA14272
:1038B00025D09A1800231360936288471FE0ED48D3
:1038C000C8210180EC4808210180FEE7E948C821B1
:1038D0000180E94808210180FEE7E648C82101800F
:1038E000E54808210180FEE7E248C8210180E2485E
:1038F00008210180FEE7101800210160816200208C
:10390000287070BD010400000304000002040000E0
:10391000FDFF3F000031005002330050AC39FD077D
:103920002B8DFC07298DFC0780B5002A00D10122D0
:1039300058F790FB80BDFEB51C460D460646002795
:10394000002801D4384600E0012029460A394B42BC
:103950004B410340019300D07642002A01D037202A
:1039600000E05720029008980090304629465AF708
:1039700023FB29464143711A0A2901DB029A00E020
:1039800030228918E1557F1C00280646EDDC00999D
:103990008F4203D23020E0557F1CF9E701980028C0
:1039A00004D02D20E055E019421C00E0E21900206F
:1039B0001070101B4108521E002907D0237815787B
:1039C00025701370491E521E641CF5E7FEBD0000F1
:1039D00083B0F0B5CAB006464F91509251934FACA8
:1039E000029403A8499001210D1A31782A18FF2A60
:1039F00073D825290ED17778B21C302F11D11178C8
:103A000000296AD03039CAB20A2A00D30021F778D7
:103A1000321D07E0761C017000214170401C499066
:103A200057E0002104233B436C2B02D11778561C2E
:103A300000E01646582F21D0632F3ED0642F25D0AA
:103A4000692F23D0732F3AD0752F17D0782F15D028
:103A5000002F42D049A803A925232CA2FFF75CF927
:103A600049982918FF2904D8077000214170401C8B
:103A7000499049A803A902232EA228E001CCC9B28B
:103A8000752F0DD100910A2100220EE001CCC9B2A0
:103A900000910A21002243AF3B46FFF74CFF12E0A2
:103AA0000091583F7A427A41102143ABFFF743FF20
:103AB000034649A803A943AA09E002CCABE780CC9E
:103AC000384600F06DF8034649A803A93A46FFF7C7
:103AD00023F931784998002988D103A9441A012C87
:103AE0000FDB2D4D2E78A019FF2802DD00F026F8FF
:103AF0002E782A48801903A922465AF7D7FA301996
:103B000028704AB0F0BC01BC03B0004746415441A4
:103B10004C3A20756E737570706F727465642070A6
:103B200072696E7466206368617261637465723A6B
:103B3000200000002E0A00006438FD07F8B5164882
:103B40000078401D032157F725FF0446002705464E
:103B500080C5114806781149284632465AF7A6FA18
:103B6000AF550D4DEFF31081012080F310886A6D81
:103B7000002A06D013461268002AFBD11C60276079
:103B800001E06C656870002902D080F3108801E0C4
:103B900087F310882F70F8BD6438FD07C0D8FC0784
:103BA0000021425C491C002AFBD1481E7047B0B579
:103BB0000C460025202D04D03EF7DDFE60556D1C1F
:103BC000F8E70020B0BD002070470000F8B51E46A1
:103BD00015460C46104658F7A0F9002801D00226D9
:103BE00025E0242004F022F807462620395C2078BE
:103BF000884211D2617864290ED83818817601265E
:103C00002846314658F757F92720002139540C3CF3
:103C10007C6100F081F80AE00648012331462A461B
:103C200057F7C6FF8121017057F7DBFF00263046AA
:103C3000F8BDC0460324000000207047082904D2C4
:103C4000006940180021417770477848C8210180F9
:103C5000774808210180FEE7082904D2006940184E
:103C60000021417770477148C821018070480821C0
:103C70000180FEE70031005002330050B0B5054628
:103C800004696069002801D057F7FFFE0020286111
:103C9000204657F7FAFEB0BDF8B51E4615460C464D
:103CA000104658F73AF9002801D002262EE02420C9
:103CB00003F0BCFF07462078082815D850F7E0FF2E
:103CC0001349884210D001262846314658F7F3F8A8
:103CD00020783818617841772720002139540C3C2E
:103CE0007C6100F019F811E04F48022331462A4662
:103CF00057F75EFF21780170082902D87621C94361
:103D000000E04021417057F76CFF00263046F8BDB7
:103D1000FFFF000000207047FEB5242003F086FF5F
:103D20004369002B22D006469F883E48874224D014
:103D300009208002874230D100972720325C187B0F
:103D4000019037181D3734461A3418460E30029643
:103D50002736012A28D83D78D540ED0703D0A55C49
:103D6000815CA9423DD1521C3270F2E72F48C82134
:103D700001802F4808210180FEE72720305C34466F
:103D80001D3435462735072812D8215C1A7BD140CF
:103D9000C9071ED1401C2870F5E72448C8210180BE
:103DA000234808210180FEE7029E009F019C00E05D
:103DB000FF241C4887421DD009208002874226D15B
:103DC000DA8819891848022357F7F2FE0470411C5B
:103DD00018E0C1B2304600F017F92878401C28706E
:103DE000FEBDD2B20298019900F00EF93078401C65
:103DF0003070FEBDDA8819890B48801C012357F703
:103E0000D7FE014600220A7057F7EBFE7369184689
:103E100057F73BFE0021716172889548104058F7B2
:103E20004AF8FEBD022400000124000000310050C9
:103E300002330050FEB5019202910546242003F0A2
:103E4000F5FE02462532078B2630002302990B70BF
:103E5000BEB28021AE421ED80478A3421BD2B11C50
:103E6000A94210D21678DE40F60703D0491C8EB264
:103E7000AE420AD0022C03D3491C8CB2AC4206D00D
:103E80005B1C4F1CE2E7E81B02E0032000E004207B
:103E90000199087000210846FEBD0000F0B591B000
:103EA0000C910B90169F3878401E01287CD81D4637
:103EB0000792282401212046059157F76BFD0646FD
:103EC00021465AF70CF93878262170541E210695A0
:103ED00029407F22D24389180A9625360D96002460
:103EE00004253A4610AFC9B2089123460992002B27
:103EF0005CD1C0B2844259D20E970FA8072101703D
:103F000016197078A0400D9B197801431970505B09
:103F100051194A88120410188A88C9880A9B585176
:103F200008048018591948607078012804D10FA836
:103F30000F2101701F2000E017200D9949780229F8
:103F400001D30FA908700C9800880E9F38800B9839
:103F5000808A0021009101902848029008980390DF
:103F60000FAA0523384626494CF745FB034600288F
:103F700014D171783888012901D1014600E0411E31
:103F8000491D0C9A1180717801290E9F06D1801C61
:103F900080B21C491E464CF7ECF93346BF1C08356D
:103FA000099A1078641CA2E7812421E0002B04D038
:103FB0000A981C4657F769FD1AE010980C9908807A
:103FC0000B9A0A9B13610C49516018832420D082FC
:103FD0000598D08118461C3090600698C003079958
:103FE00008431880908A58800024214657F763FFC1
:103FF000E0B211B0F0BDC046B8A8FC073CA8FC0771
:104000000F1800000102000070B5144605464088F4
:10401000D34A0240C120000109020831092357F7A1
:10402000C7FD064612203070242003F0FFFD262134
:10403000415CA1420FD901462531008B00229442F8
:104040000BD00B78D340DB0701D0052300E004231D
:104050001818521CF3E7002000E0801C0121F180B9
:10406000B0802819807E3072304657F7BAFD70BD97
:10407000FF7F0000FEB50125E802334C2188014393
:104080002180A803218801432180208828432080A3
:104090001420FEF7D1FE6802A080E080280321886A
:1040A000014321802088294908402080AE02FEF784
:1040B00047FE218831432180EF43784355210D018C
:1040C0000195B035401902902148461CFEF738FE94
:1040D000A1883140029A1143A18078434019E188B8
:1040E00031400143E1802088184908402080208821
:1040F00018490140218000242046FEF733FE80B29B
:1041000001096E2901D964241BE0019A1146E031AE
:1041100088420AD9000411494018BF2159F762FFAB
:10412000482141430C0C1C340BE0904209D9000497
:1041300009494018E02159F755FF18214143080C5F
:10414000041DE0B2FEBDC04600150050FFFB00009C
:10415000FFFBFFFFFFEF00000000B0FA0000D0F906
:1041600010B50446FD203EF76AFB014608480422CC
:10417000082357F71DFD02218180418001214170F4
:104180002178627812025118C18057F72AFD10BDBC
:1041900006FD000070B50C46054619490888000662
:1041A00018480ED5184A126812040AD4174A128801
:1041B000D20706D14019801C0421224657F74AFF36
:1041C00070BDEFF31083012282F31088098809067D
:1041D00003D40F490E8816430E80002B02D082F3C1
:1041E000108802E0002181F31088042108230A4688
:1041F00057F7DEFC4460057057F7F3FC70BDC0460E
:104200000800005001040000300000405877FD070E
:10421000083300507047000070B514460D4606463E
:10422000FD2003F003FD002C0CD0002D11D0103028
:104230000068002814D00179B142F9D14179298070
:10424000801D0FE0A348C8210180A34808210180F8
:10425000FEE7A048C82101809F4808210180FEE7B1
:1042600000202880206070BD70B515460C461046B1
:1042700057F753FE002813D1FD2003F0D7FC064664
:104280000848082106232A4657F792FCA188418056
:10429000A1790171B18862885118018057F7A1FC9A
:1042A000002070BD180C0000FEB502920F460546B6
:1042B000FD2003F0BBFC0646103601973446246807
:1042C000002C0DD02079A842F9D16079B84214D0E1
:1042D0000022304621463EF795FC204657F7D5FB95
:1042E00008370121384657F755FB0446394659F738
:1042F000F6FE304621463EF731FC019A6271257187
:10430000A01D029959F7D2FEFEBD0000FEB5029134
:10431000264D1435006901900127254E254C0E2F9E
:104320000FD03046F840C00708D028680088A04267
:1043300004D1F9B20022029800F042FA14357F1C31
:10434000EDE702200199085E65490140C20B029821
:10435000000210400843002157F7ADFDFEBDC046E6
:10436000FF7F0000F8B50091072916D80F4D1435CE
:1043700001260F4F0F4C0E2E16D03846F040C007C6
:1043800008D028680088A04204D1F1B20022009829
:1043900000F016FA1435761CEDE74E48C82101806E
:1043A0004D4808210180FEE7F8BDC04638AAFC0749
:1043B0005A3500000229000070B5054604692646FA
:1043C00010363068002805D030463EF7ABFB57F773
:1043D0005CFBF6E700202861204657F756FB70BDCE
:1043E0007CB5FD2003F022FC8668002E2CD004460C
:1043F000407B6D4601AA2946FFF70EFF2888082852
:1044000029D10C36227B0198072A2BD81146521C41
:104410002273435C7578002D02D0DB07F4D001E0F5
:104420009B07F1D5A068C288B388C12000010902AA
:10443000083189B208339BB257F7BAFB054670784A
:1044400000281DD012201CE0F948C8210180F9483D
:1044500008210180FEE7F648C8210180F5480821BF
:104460000180FEE7A068C288018973781B48002B91
:1044700018D0042357F79CFB71880180811C19E038
:1044800013202870A08871880818A880B088E88058
:1044900028460830B288B11D59F708FE284657F75C
:1044A000A0FB7CBD801C80B2062357F781FB71887E
:1044B0004180011D00250D7057F793FBA06857F749
:1044C000E4FAA560618806480840294657F7F3FCDE
:1044D0007CBDC046003100500233005007FD000093
:1044E000FF7F000010B50446FD2003F09FFB81799B
:1044F000A14202D98088001900E0002080B210BDDE
:10450000B0B50C460546FD2003F090FB01468288BD
:104510008020AA4206D889798918A94202D9A81A06
:1045200020700020B0BD0000F0B597B01E4602928A
:104530000B9105462824012120460E9157F72AFAAF
:104540000746214659F7CBFD079504972F611E209A
:10455000019630403F21C943411803915F21C9436F
:10456000411805917F21C9434018069000228F4FC2
:10457000904E032A00D1DFE00798848A13A88A4965
:104580000180511C8A480991415C0A92855C681C33
:10459000C2B20F929142129100D80146E843081826
:1045A000C1B2182048431830032157F7F3F90146E8
:1045B0000B980088088011914C801424204608959F
:1045C000684330180279022A069903D0042A059913
:1045D00000D00399119A11710169901D102259F7A9
:1045E00065FD0F9D6C433619002710963C4628192F
:1045F000129988424DD23079102816D0042826D03E
:10460000022842D11198C519B0890D90B0680C905C
:104610003068017840786876297628461A300E216D
:1046200059F75DFD0C99080C2AE01198C519284628
:1046300018303168102259F739FDB0682885B189E2
:10464000A9850E99C9040143080C68851CE01198DE
:10465000C519B0890D90B0680C9030680178427827
:104660008378C078E876AB766A76297628461C305F
:104670000C2159F734FD0E9880040C990843000C66
:10468000688529850D98A8850F9D14361837641CF8
:10469000ADE7119844714BF7F6FB04460028434FF1
:1046A00015D0119857F7F1F90A98002803D10B9803
:1046B00000880499888012980899401A0B9A1188EA
:1046C00040181080002C099A3A4E6AD151E711988F
:1046D00000880B99088000242646002CE1D112980E
:1046E0008542DED2761C0024022D20D0072D1ED05C
:1046F0003148E840C0071AD11098C1893846E840CF
:10470000C00709D01098006802784078000280182D
:1047100013AA128890420AD0F0B2119A1288101887
:1047200080B2109A136900224BF787FC0446109858
:10473000143010906D1CD0E70E20049A9071FD206B
:104740000799C8820E9DCD811C484860888A508098
:104750001046243088600198C003029908431080F5
:10476000103210463EF7D6F90024159414941436EE
:104770000E2D11D03846E840C0070AD00A48FF3055
:1047800031680988814204D1E8B2082114AAFFF7F0
:104790008BFD14366D1CEBE70798808A214657F78E
:1047A0008AFBE0B217B0F0BD032800005A350000C4
:1047B000CAD7FC0738AAFC07CE1C0000FCA7FC07E0
:1047C000F0B585B008281DD215460C46064604AF44
:1047D00003AA08463946FFF71FFD3F88002F18D06F
:1047E000039900291CD0009501AD28463A4659F797
:1047F0005DFC0098A855204639462A46FFF754FD2F
:1048000005B0F0BD4848C821018048480821018012
:10481000FEE74548C8210180444808210180FEE7A1
:104820004148C8210180414808210180FEE7C04677
:104830000031005002330050FEB514460E46FD20F4
:1048400003F0F4F90546878800967688019420469F
:1048500057F763FB012801D1022726E0F01980B247
:1048600002F012FA00280BD002A9FFF749FE002837
:104870000DD02D48C82101802C4808210180FEE779
:104880002948C8210180294808210180FEE7012725
:104890000198394657F70FFB0020287300980C3811
:1048A000A86002986873FFF79BFD3846FEBDC046BE
:1048B000FEB514460E46FD2003F0B8F9054687887C
:1048C000009676880194204657F727FB012801D1EE
:1048D000022726E0F01980B202F0D6F900280BD0AA
:1048E00002A9FFF70DFE00280DD00F48C821018056
:1048F0000E4808210180FEE70B48C82101800B48C3
:1049000008210180FEE701270198394657F7D3FABD
:104910000020287300980C38A86002986873FFF78D
:104920005FFD3846FEBDC0460031005002330050E6
:1049300010B50C46FD2003F079F9808861880818CD
:1049400080B2A188A31D002422464BF776FB2046A7
:1049500010BD000070B514460D46104657F7DDFA3D
:1049600001282FD1287801020831AA791648002A97
:104970000CD089B20623224657F71AF90646A878C2
:10498000FFF7B0FD80213171308014E0AA8889B230
:10499000921D93B2224657F70BF90646A878FFF707
:1049A000A1FD002131713080A8887080701DAA8817
:1049B000E91D59F77BFB304657F713F900212046D4
:1049C00057F779FA002070BD140C000070B504464A
:1049D000032800D2521E95B26818A908461864210F
:1049E000284659F7E9FA361A19200101284659F7DD
:1049F000E3FA3018A10005A28918091F09684018B8
:104A0000072159F7EFFAC8B270BDC0460000000098
:104A1000030000000200000005000000000000008C
:104A20000300000005000000010000000400000079
:104A300006000000020000000400000070477047FC
:104A400080B559F721FB80BD80B559F726FB80BDA5
:104A5000F0B585B00024204603F0CEFB03F0DEFA6B
:104A60002727A94DE85D411E032900D932E1C04640
:104A70007944097949008F4401502E3864206875C3
:104A8000FEF7F2FAA6A0FEF7A3FFFDF7F7FD26203A
:104A90002C5C9E4D80266E807D20000104F01CF968
:104AA0002E80A24804F018F9002C4ED02C20FDF7DF
:104AB0008BFC2820FDF798FCFDF77EFC3220FDF7EB
:104AC00083FC00249D4D462C00D19BE0285DFDF722
:104AD0008BFC641CF7E72620295C002900D1ADE09F
:104AE0002220FDF771FC0420AEE0FEF7BDFA8748F6
:104AF000C08FC00700D0B0E0EC5585A0FEF768FF7E
:104B00001020FDF761FC0120FDF76EFC04A8FF21D9
:104B100041700170FFF724FBE2E026202D5C242089
:104B2000FDF752FC002D00D199E000247B4DD42CE0
:104B300000D1A2E000260D2E04D0A85DFDF754FCA4
:104B4000761CF8E70D35641CF1E70397FDF734FC9C
:104B50001220774CA047FDF72FFC7420A04754206B
:104B6000744FB8477E20A0473B200290B8470125EC
:104B700028460195A047D3263046B8470024204652
:104B8000B8472046B8472046B847112068498847AB
:104B90002846B8474420664DA8472046B8470C2011
:104BA000B8474520A8473046B8472046B847204672
:104BB000B8472046B8473C20A8470198B8472C2062
:104BC000A8475020B8470320A8471520B84704201D
:104BD000A8474120B847A820B84732263046B847F2
:104BE0003A20A8473020B8470298A8470A20B8477B
:104BF0003046A847504D462C53D0285DFDF7F4FBB6
:104C0000641CF8E737204A4DA8470024494E204647
:104C1000B0472046B0472046B0472046B047402026
:104C2000B0472046B0472046B0472220A847C020C2
:104C3000B0472020A847FDF7BFFB47E001212954DA
:104C40002220FDF7C1FBC420FDF7CEFB2020FDF79D
:104C5000BBFBE85D401CE8553CE0E85D3AE02F4DC9
:104C6000D42C3FD000260D2E04D0A85DFDF7BCFB50
:104C7000761CF8E70D35641CF2E72620FDF7A4FB4F
:104C80000024264DD42C21D000260D2E06D0A95D5F
:104C9000FF204840FDF7A8FB761CF6E70D35641CA5
:104CA000F0E7FDF789FB4E20FDF78EFB0024204640
:104CB000B8474F20FDF788FBD3252846B847204644
:104CC000B8472846B8472046B847039F0E49C85DF5
:104CD000401CC855000603D00A201949FEF7DEFA29
:104CE00005B0F0BD2620FDF76FFB00240B4DD42C42
:104CF000ECD000260D2E04D0A85DFDF775FB761CC8
:104D0000F8E70D35641CF2E76438FD070230005007
:104D10006570645F736C6565700A0000D81EFD07DE
:104D20006570645F696E69740A0000008813000092
:104D3000C923FC07E923FC07B8ABFC0704ACFC075C
:104D4000514AFC077047704770B505460469261D37
:104D50003068002805D030463DF7E4FE56F795FE52
:104D6000F6E700202861204656F78FFE70BD000050
:104D7000F0B58BB01E4607920F4604461098069079
:104D800000880890002101200246092913D003253C
:104D90008540099020463446089ECE403B46012778
:104DA00037407E421F462E4032432646044609982D
:104DB000801C491CE9E70A92802030439E21014073
:104DC000A08A03911D4902910190002000901C4986
:104DD0000AAA132338464BF70EFC0546002829D1B2
:104DE0000897202701210591384656F7D3FD0996EB
:104DF0000646394659F773F9266130461E30114987
:104E00006160A0600898008830830598E0811420D4
:104E1000E082A08A70800998C00307990843308017
:104E2000069800887083301D3DF774FEA08A00212B
:104E300057F741F828460BB0F0BDC04690A6FC07D6
:104E40000A1800009CA7FC07FEB5019302920C46CD
:104E5000142002F0EBFE2778082F14D80546418B6A
:104E6000008B3A4600F0F2F800280ED060788D26CC
:104E7000802839D8082F0AD0072F0BD0062F0BD146
:104E8000082809D030E081262EE082262CE0072871
:104E900002D029E0062827D32E1D35462D68002D87
:104EA0000BD02979B942F9D10022304629463DF785
:104EB000A9FE284656F7E9FD60780830012156F72B
:104EC00069FD05466178083159F709F9207828719C
:104ED00060786871A81D6278A11C59F7E7F8304620
:104EE00029463DF73BFE0026064802230199029A17
:104EF00056F75EFE21780170467056F772FE00206C
:104F0000FEBDC04601140000F8B514460D4610461B
:104F100057F703F8012835D1142002F087FE064622
:104F2000077F418B008B3A4600F090F80090707F2D
:104F3000010208312A781448974212D16A7889B25E
:104F4000931D224656F734FE07460020387100981C
:104F5000388068787880781D6A78A91C59F7A6F897
:104F600009E089B20623224656F722FE0746802032
:104F7000387100983880384656F733FE00212046B5
:104F800056F799FF0020F8BD140C0000F8B508781A
:104F9000082812D80C460B251BA6C0467844007979
:104FA000400087441C041104070714171A00072542
:104FB0001A4E14E00F25184E11E02248C821018036
:104FC000214808210180FEE70A2515A607E00825EB
:104FD00018A604E006250F4E01E0072513A6AF1C16
:104FE000174819463B4656F7E3FD074620783870C8
:104FF0007D70B81C31462A4659F758F8384656F79E
:10500000F0FD0020F8BDC0464469616C6F67205315
:10501000656D690064D8FC0713D8FC0723D8FC072A
:10502000312E302E302E302D4C45000001D2008024
:1050300005000100123456FFFE9ABCDE000000009D
:10504000031400000031005002330050B0B58BB2A1
:10505000411C00200446092C0DD01D46E540ED07FB
:1050600002D0A24202D0891C641CF4E7092A01D0B4
:10507000481C00E0002080B2B0BD0000F0B597B041
:10508000D44E306801243146343103F04FFE03CE54
:10509000083E00290AD0411AE1221201914205D8A6
:1050A0003921755C002D01D0002703E070603921A3
:1050B000755C2746C84B29215E5CAE4200D05D542A
:1050C00024215A5C022A08D0012A52D0002A00D199
:1050D00091E000225A54BF4ED5E7FDF743FDBF488B
:1050E0000475BF494162BB48006815AC0890214671
:1050F00003F01CFE701B411E88410743012F00D0A6
:1051000086E10B97B74815990D18E0780990A078BB
:10511000441CFDF75DFBAAB2E3B20FACB2492046D6
:105120000D920C9304F082F9FF200E90039000275B
:105130000297AE4E0196AE4800902820022101252C
:105140002A462346FDF75CF9AA4C072F00D1D8E088
:1051500008CC0022A8480090019602920E98039075
:1051600013207843083080B21421FDF749F97F1CE1
:10517000EBE7FDF7F7FC99480475994941629548BA
:10518000006815AC214603F0D1FD964815990D181D
:10519000E0780A90A478FDF71BFBADB2601CC3B2A7
:1051A0000FAF914938462A460D9304F03FF9FF208E
:1051B0000E900390002402948C4E01968C4800902F
:1051C0002820022122463B463746FDF719F9894E31
:1051D000072C18D008CE0022874800900197029231
:1051E0000E98039014206043123080B21921FDF70D
:1051F00007F9641CECE7002F02D1AE4200D181E236
:1052000000F02EFB7EE26421284658F7D5FE0C46BE
:1052100019200101284658F7CFFE002C01D00321A8
:105220002940484248410C210991484373490818D4
:105230000D990818401E00780B900124084621465D
:105240002A46FFF7C3FB05460026E7B20B988742C4
:1052500040D80D9414A86A493A4604F0E7F80C9631
:10526000F1B2099841430E462A36EAB21C20504357
:10527000044612340A9A974214D100270097024636
:1052800024320B4637330E302B31FDF743FC5A489E
:10529000009001970E9802900397E0B2F1B214AB20
:1052A0003A4609E0002254480090019202920E987A
:1052B0000390E0B2F1B214ABFDF7A2F80D9C0C9E86
:1052C0006D1CE8B2062800D9761C062800D90025F6
:1052D000641CBAE715A8027943790FAC49A12046AE
:1052E00004F0A4F800204249009140490191029045
:1052F0000E98039096206E2101222346FDF780F838
:1053000000E264210D9E304658F756FE0C461920E7
:105310000101304658F750FE002C01D003213140E6
:10532000484248410C214143344840180C99081820
:10533000401E00780A90084629463246FFF746FB91
:10534000064600200D900B9FECB20A9884425FD86D
:105350000C9514A82A49224604F068F80D98C0B2AA
:105360000E2141430D462A35F0B21322424317461F
:1053700008370998844213D1002400940B4639332E
:10538000901D10322B31FDF7C5FB1B480090019496
:105390000E9802900394F8B2E9B214AB224609E0E9
:1053A000002215480090019202920E980390F8B2E4
:1053B000E9B214ABFDF724F8761CF0B206280B9F77
:1053C0000C9D02D90D99491C0D91062800D9002683
:1053D0006D1CB9E7E038FD076438FD0710DAFC07FB
:1053E000D81EFD076C07000045D8FC07A0CEFC07BF
:1053F00044BEFC0710BEFC0728CAFC072CBEFC07F5
:105400002BD8FC07253032643A2530326400000086
:105410000FA9089803F08AFC002F00D1D9E0FF20E3
:10542000059000908B200A21F9227823FDF772FB6A
:1054300035200222002421462346FDF7E9F95920B0
:10544000C54328461E3001210E910D9504940E99F6
:105450000D2900D1B4E00C90FCF79AFED64AD74B48
:10546000FCF70AFD2246D64BFCF76EFD05460E46BC
:1054700004F0B8FD0E9F044606910B9528460A9647
:10548000314604F0FBFD0890079114A80990C84923
:105490003A4603F0CBFF2046CB4E049C06992246A9
:1054A000C84D2B46FCF7E8FC22463346FCF732FC9D
:1054B000FCF790FE06460898079922462B46FCF713
:1054C000DBFC2246C14BFCF725FCFCF783FEB74909
:1054D00000910194029405990391092FB54901D8CF
:1054E000B449091D89198AB2801FC1B210462246EB
:1054F000099BFCF785FF0B9D28460A9F394604F05F
:1055000071FD2246B24BFCF7B7FC2246AE4BFCF7CE
:1055100001FCFCF75FFE06462846394604F0AEFD66
:105520002246AB4BFCF7A8FC2246A84BFCF7F2FB4B
:10553000FCF750FE0146022330462246FDF7C0FA32
:105540000C981E300E99491C0E910D9D7FE7E0B21C
:10555000052158F731FD002930D02846FCF718FE08
:10556000954A964BFCF788FC00273A46944BFCF78B
:10557000EBFC06460D950D4604F034FD3A46954B7E
:10558000FCF77AFC3A46904BFCF7C4FBFCF722FE92
:105590000E90304629460D9D04F070FD3A468D4B25
:1055A000FCF76AFC3A46894BFCF7B4FBFCF712FEA9
:1055B000014601230E983A46FDF782FAAD1D641CA0
:1055C0003C2CC4D1C220412100220323FDF778FAEC
:1055D00005E02B20FF2101221346FDF719F90FAC3E
:1055E00020790C2158F7E8FC1E204843FCF7D0FD39
:1055F00005460E4667793846FCF7DEFD0024764BFB
:105600002246FCF739FC2A463346FCF783FB734BF2
:105610002246FCF77FFB684A684BFCF72DFC684B81
:105620002246FCF791FC06460D46062078435A3880
:10563000FCF7AEFD604A614BFCF71EFC2246604B56
:10564000FCF782FC07460E913046294604F0CAFC5E
:10565000634B2246FCF710FC5B4B2246FCF75AFBDF
:10566000FCF7B8FD0D903046294604F007FD2246B0
:105670005B4BFCF701FC554B2246FCF74BFBFCF760
:10568000A9FD0B9038460E9D294604F0ABFC06465A
:105690000A913846294604F0F1FC0E900C91042042
:1056A00000940190C2254127284639460D9A0B9B4C
:1056B000FDF7A4F94B4B30460A992246FCF7DCFB78
:1056C0002246414BFCF726FBFCF784FD06460E986C
:1056D0000C992246434BFCF7CFFB22463B4BFCF791
:1056E00019FBFCF777FD0346022000940190284641
:1056F00039463246FDF782F90323284639462246C9
:10570000FDF7DEF90024009489204500BC20082123
:105710000C232A46FDF7FEF900941535BE2003211F
:1057200011232A46FDF7F6F91E4E727D1E4D2835CF
:105730001F49284603F07AFE727D10460A385A281F
:1057400001D229A102E0092A03D828A1284603F0A2
:105750006DFE0394FF2602960194144F0097BD201E
:10576000032122462B46FCF74BFE25200D49085C01
:1057700001280AD10097019402960394CA205A2165
:105780001CA32246FCF73CFE06493920044A105C63
:10579000002801D126200C5427200C5417B0F0BD4E
:1057A000E038FD076438FD0710DAFC0728CAFC075B
:1057B0002BD8FC07F9FF0000182D4454FB210940A9
:1057C0000080664000004340004068400040504078
:1057D00000804640000048400000E03F008056C086
:1057E00000003A40008042402025640020202564CB
:1057F000000000004200000010B50F480F49FDF7FF
:105800004DFD48210E4C60522820215C3C22225440
:105810000C480268511801600BA0FEF7D9F8FFF799
:105820002DFC2720215C002900D010BD012121542E
:10583000FFF70EF910BDC04670170000F957FC07BE
:105840006438FD07E038FD0763757272656E745F3A
:10585000756E69785F74696D653A25640A000000A9
:10586000F0B58BB0FDF77EF9674C012525756748CB
:105870006062FCF7ADFF3620654A105C3721515C51
:10588000928E009163495218431C283462A120462D
:1058900003F0CCFDFF270397002602966248019093
:1058A0006248009005200A9029462A462346FCF7C4
:1058B000A7FD3B205649085C80005D490A185DA1A0
:1058C000204603F0B3FD59480090574809960897C1
:1058D00001A9C1C1822029462A462346FCF790FD32
:1058E00039204B49085C0690382007900D5CE8B2DF
:1058F0000A21059158F760FB0446514E0A9821464B
:10590000B0470920C7437C436019C1B22320B04788
:1059100043262721072430462246234600F0B6F8C6
:105920004021304622460A94234600F0AFF8069CF8
:10593000E0B2059958F740FB054652202946404EF3
:10594000B0476F433819C1B27020B047079830494B
:10595000085C3C4D072801D2099E33E01528099EBA
:1059600030D8082801D2384D2CE00B2801D2374D11
:1059700028E00D2801D2364D24E004D0132801D2AE
:10598000354D1FE001D0334D1CE0344D1AE009962F
:1059900014360024462C12D027460A98074028784F
:1059A000B840000606D5B1B220468C3080B2002245
:1059B000FDF7ECF8072F00D16D1C641CEAE7099E87
:1059C000761C6D1C462EE2D12820114D285C28350E
:1059D0002B796A79E978AC786D7800AE32C603909D
:1059E0001F4C20A1204603F021FD089803900020C1
:1059F00002900190244900915A2102462346FCF767
:105A0000FFFC0BB0F0BDC04610DAFC07D81EFD0746
:105A1000E038FD076C07000025642D253032642D29
:105A20002530326400000000A0CEFC0744BEFC0715
:105A3000AAD7FC07E6989FE69C9F2573000000000C
:105A4000A95AFC0750ACFC0748B6FC07CEAEFC07D1
:105A50004CB1FC0732BBFC07CAB3FC07B4B8FC0767
:105A6000DDD9FC074D41433A20253032583A2530E4
:105A700032583A253032583A253032583A253032A9
:105A8000583A25303258000028CAFC071CB50024BB
:105A900000941218521E92B25B185B1E9BB280B229
:105AA00089B2FDF737F81CBD70B500294BD40D46FF
:105AB000092948DC0446012D0DD0042D0BD0201DF2
:105AC0001E2111220423FFF7E1FF681F012802D8DD
:105AD0002646153609E026461536222104221323D0
:105AE0003046FFF7D3FF022D05D0392104221323BE
:105AF0003046FFF7CBFF9220E840C00705D1201DBC
:105B00004C2111220423FFF7C1FF0F48E840C007D2
:105B100005D13921042213232046FFF7B7FF8E2039
:105B2000E840C00705D12221042213232046FFF7B5
:105B3000ADFF8320E840C00705D1201D352111228B
:105B40000423FFF7A3FF70BDBA02000070B50C7804
:105B5000A51E052D38D81C0A7D442D796D00AF4453
:105B60000222333642507A2060433C4A1518887826
:105B700078216854C0070ED0284671300C2161434B
:105B8000E74A561831464131062258F78FFA40202D
:105B9000305C772168540C206043E14908184721A4
:105BA000002242543EE07A2060432C4908187821B4
:105BB000002242540C206043D9490818472142541E
:105BC0002046FDF725FB2DE003F054FA2AE07A2564
:105BD0006543224C60193A30891C172258F766FA3F
:105BE000605D04211CE07A2565431C4E701961300C
:105BF000891C1024224658F759FA705D20437055CD
:105C000010E08B1C488A00280ED07A256543134C7F
:105C100060191E301C22194658F748FA605D0221AF
:105C200001436155002070BD7A2666430B4CA519CF
:105C3000A81C1C22194658F739FAA05D012101431E
:105C4000A15507A0FDF7C4FE112608A4012EE9D036
:105C5000A95D2046FDF7BCFE761EF7E7461CFD0752
:105C6000200D0A204C544B3A2030780025303278F1
:105C700000000000F0B585B00878072840D81C0A5D
:105C8000800001A210588746A95CFC07015DFC0753
:105C9000015DFC07015DFC070F5DFC07B55DFC07BE
:105CA000B55DFC072B5DFC077A2060434349002566
:105CB0000D540C206043BE49081847210127475462
:105CC000A0003F490E18746F7436002C13D10A20BF
:105CD0000343F5208343404804221E2419462346EB
:105CE00055F766FF044607703060801C3B49072269
:105CF00058F7DCF96770204655F773FF356059E0B7
:105D0000A948C8210180A94808210180FEE74878F8
:105D100003284FD878440079400087444001014669
:105D20002848019001A9042241E07A2666432348CD
:105D300085194F782F772846143008210A46FDF739
:105D40006DFBA81C0090102239461746FDF766FB34
:105D50003CF711FE194B995D01220A439A5568825E
:105D6000204601F059F8297F0177698A4182E98A42
:105D7000AA8A6B8B2D8B058343838282C182801C10
:105D800000993A4658F792F9204601F045F855F740
:105D900028FFA0000A490818002181670AE00AA02C
:105DA00001A90A46E8C8E8C200E0891C1022204682
:105DB000FDF74AFA002005B0F0BDC046461CFD07BD
:105DC0006438FD0740E201000001020304050607F4
:105DD00008090A0B0C0D0E0F140E000030AAFC0768
:105DE00010B50C78092C0BD04C78002C06D0FB4851
:105DF000C8210180FA4808210180FEE703F03AF942
:105E0000002010BDFEB51E4610460C4656F785F81C
:105E1000022862D10294340A0C20604340490F18D2
:105E20003E203C543D463E35FF2C5DD03F200121B5
:105E30000191395404200090032156F73CF8029A4E
:105E40001088B88738463C30517A01714137114685
:105E50000A310622384658F729F97A206043314939
:105E600008187821475C0A200643F52086432E480F
:105E70002C233146009A55F79BFE28214754019F59
:105E8000014628314F7055F7ACFE2878FF282BD0FB
:105E9000264EB4772020305CFDF72AFA0299488814
:105EA000082809D3242807D888880A2804D14B2039
:105EB0008000C988814204D0C8201D49FDF7EEF951
:105EC000F0771CA0FDF784FD2520375437771C4858
:105ED00004210A2256F7BEF808E00F48C8210180C5
:105EE0000E4808210180FEE703F016F82878FF2805
:105EF0000ED0144D08350026F0B2002802D0032839
:105F000003D107E02968204688470C35761CF3E763
:105F100003F002F80020FEBD0031005002330050B3
:105F2000E038FD07461CFD07020E00006438FD073F
:105F3000B979FC07636F6E6E656374696F6E0A00F2
